{
	"TUTORIAL/Functions2.sol": {
		"Functions": {
			"abi": [
				{
					"inputs": [
						{
							"internalType": "uint256",
							"name": "a",
							"type": "uint256"
						},
						{
							"internalType": "uint256",
							"name": "b",
							"type": "uint256"
						}
					],
					"name": "add",
					"outputs": [
						{
							"internalType": "uint256",
							"name": "",
							"type": "uint256"
						}
					],
					"stateMutability": "pure",
					"type": "function"
				},
				{
					"inputs": [
						{
							"internalType": "uint256",
							"name": "c",
							"type": "uint256"
						},
						{
							"internalType": "uint256",
							"name": "d",
							"type": "uint256"
						}
					],
					"name": "add2",
					"outputs": [
						{
							"internalType": "uint256",
							"name": "",
							"type": "uint256"
						}
					],
					"stateMutability": "pure",
					"type": "function"
				},
				{
					"inputs": [],
					"name": "callInternalKeyword",
					"outputs": [
						{
							"internalType": "string",
							"name": "",
							"type": "string"
						}
					],
					"stateMutability": "pure",
					"type": "function"
				},
				{
					"inputs": [],
					"name": "callprivateKeyWord",
					"outputs": [
						{
							"internalType": "string",
							"name": "",
							"type": "string"
						}
					],
					"stateMutability": "pure",
					"type": "function"
				},
				{
					"inputs": [],
					"name": "callpublicKeyWord",
					"outputs": [
						{
							"internalType": "string",
							"name": "",
							"type": "string"
						}
					],
					"stateMutability": "pure",
					"type": "function"
				},
				{
					"inputs": [],
					"name": "externalKeyWord",
					"outputs": [
						{
							"internalType": "string",
							"name": "",
							"type": "string"
						}
					],
					"stateMutability": "pure",
					"type": "function"
				},
				{
					"inputs": [],
					"name": "publicKeyWord",
					"outputs": [
						{
							"internalType": "string",
							"name": "",
							"type": "string"
						}
					],
					"stateMutability": "pure",
					"type": "function"
				}
			],
			"devdoc": {
				"kind": "dev",
				"methods": {},
				"version": 1
			},
			"evm": {
				"assembly": "    /* \"TUTORIAL/Functions2.sol\":216:2013  contract Functions {\r... */\n  mstore(0x40, 0x80)\n  callvalue\n  dup1\n  iszero\n  tag_1\n  jumpi\n  0x00\n  dup1\n  revert\ntag_1:\n  pop\n  dataSize(sub_0)\n  dup1\n  dataOffset(sub_0)\n  0x00\n  codecopy\n  0x00\n  return\nstop\n\nsub_0: assembly {\n        /* \"TUTORIAL/Functions2.sol\":216:2013  contract Functions {\r... */\n      mstore(0x40, 0x80)\n      callvalue\n      dup1\n      iszero\n      tag_1\n      jumpi\n      0x00\n      dup1\n      revert\n    tag_1:\n      pop\n      jumpi(tag_2, lt(calldatasize, 0x04))\n      shr(0xe0, calldataload(0x00))\n      dup1\n      0x771602f7\n      gt\n      tag_10\n      jumpi\n      dup1\n      0x771602f7\n      eq\n      tag_6\n      jumpi\n      dup1\n      0x8a65dbce\n      eq\n      tag_7\n      jumpi\n      dup1\n      0xe523a709\n      eq\n      tag_8\n      jumpi\n      dup1\n      0xf4bb8295\n      eq\n      tag_9\n      jumpi\n      jump(tag_2)\n    tag_10:\n      dup1\n      0x20d6e703\n      eq\n      tag_3\n      jumpi\n      dup1\n      0x29fcda33\n      eq\n      tag_4\n      jumpi\n      dup1\n      0x58743325\n      eq\n      tag_5\n      jumpi\n    tag_2:\n      0x00\n      dup1\n      revert\n        /* \"TUTORIAL/Functions2.sol\":1683:1788  function callInternalKeyword() public pure returns(string memory) {\r... */\n    tag_3:\n      tag_11\n      tag_12\n      jump\t// in\n    tag_11:\n      mload(0x40)\n      tag_13\n      swap2\n      swap1\n      tag_14\n      jump\t// in\n    tag_13:\n      mload(0x40)\n      dup1\n      swap2\n      sub\n      swap1\n      return\n        /* \"TUTORIAL/Functions2.sol\":338:424  function add2(uint c, uint d) public pure returns(uint){\r... */\n    tag_4:\n      tag_15\n      0x04\n      dup1\n      calldatasize\n      sub\n      dup2\n      add\n      swap1\n      tag_16\n      swap2\n      swap1\n      tag_17\n      jump\t// in\n    tag_16:\n      tag_18\n      jump\t// in\n    tag_15:\n      mload(0x40)\n      tag_19\n      swap2\n      swap1\n      tag_20\n      jump\t// in\n    tag_19:\n      mload(0x40)\n      dup1\n      swap2\n      sub\n      swap1\n      return\n        /* \"TUTORIAL/Functions2.sol\":1125:1232  function callprivateKeyWord() public pure returns(string memory) {\r... */\n    tag_5:\n      tag_21\n      tag_22\n      jump\t// in\n    tag_21:\n      mload(0x40)\n      tag_23\n      swap2\n      swap1\n      tag_14\n      jump\t// in\n    tag_23:\n      mload(0x40)\n      dup1\n      swap2\n      sub\n      swap1\n      return\n        /* \"TUTORIAL/Functions2.sol\":244:330  function add(uint a, uint b) public pure returns(uint) {\r... */\n    tag_6:\n      tag_24\n      0x04\n      dup1\n      calldatasize\n      sub\n      dup2\n      add\n      swap1\n      tag_25\n      swap2\n      swap1\n      tag_17\n      jump\t// in\n    tag_25:\n      tag_26\n      jump\t// in\n    tag_24:\n      mload(0x40)\n      tag_27\n      swap2\n      swap1\n      tag_20\n      jump\t// in\n    tag_27:\n      mload(0x40)\n      dup1\n      swap2\n      sub\n      swap1\n      return\n        /* \"TUTORIAL/Functions2.sol\":1887:2008  function externalKeyWord() external pure returns(string memory) {\r... */\n    tag_7:\n      tag_28\n      tag_29\n      jump\t// in\n    tag_28:\n      mload(0x40)\n      tag_30\n      swap2\n      swap1\n      tag_14\n      jump\t// in\n    tag_30:\n      mload(0x40)\n      dup1\n      swap2\n      sub\n      swap1\n      return\n        /* \"TUTORIAL/Functions2.sol\":498:612  function publicKeyWord() public pure returns(string memory) {\r... */\n    tag_8:\n      tag_31\n      tag_32\n      jump\t// in\n    tag_31:\n      mload(0x40)\n      tag_33\n      swap2\n      swap1\n      tag_14\n      jump\t// in\n    tag_33:\n      mload(0x40)\n      dup1\n      swap2\n      sub\n      swap1\n      return\n        /* \"TUTORIAL/Functions2.sol\":620:725  function callpublicKeyWord() public pure returns(string memory) {\r... */\n    tag_9:\n      tag_34\n      tag_35\n      jump\t// in\n    tag_34:\n      mload(0x40)\n      tag_36\n      swap2\n      swap1\n      tag_14\n      jump\t// in\n    tag_36:\n      mload(0x40)\n      dup1\n      swap2\n      sub\n      swap1\n      return\n        /* \"TUTORIAL/Functions2.sol\":1683:1788  function callInternalKeyword() public pure returns(string memory) {\r... */\n    tag_12:\n        /* \"TUTORIAL/Functions2.sol\":1734:1747  string memory */\n      0x60\n        /* \"TUTORIAL/Functions2.sol\":1767:1784  InternalKeyword() */\n      tag_38\n        /* \"TUTORIAL/Functions2.sol\":1767:1782  InternalKeyword */\n      tag_39\n        /* \"TUTORIAL/Functions2.sol\":1767:1784  InternalKeyword() */\n      jump\t// in\n    tag_38:\n        /* \"TUTORIAL/Functions2.sol\":1760:1784  return InternalKeyword() */\n      swap1\n      pop\n        /* \"TUTORIAL/Functions2.sol\":1683:1788  function callInternalKeyword() public pure returns(string memory) {\r... */\n      swap1\n      jump\t// out\n        /* \"TUTORIAL/Functions2.sol\":338:424  function add2(uint c, uint d) public pure returns(uint){\r... */\n    tag_18:\n        /* \"TUTORIAL/Functions2.sol\":388:392  uint */\n      0x00\n        /* \"TUTORIAL/Functions2.sol\":415:416  d */\n      dup2\n        /* \"TUTORIAL/Functions2.sol\":411:412  c */\n      dup4\n        /* \"TUTORIAL/Functions2.sol\":411:416  c + d */\n      tag_41\n      swap2\n      swap1\n      tag_42\n      jump\t// in\n    tag_41:\n        /* \"TUTORIAL/Functions2.sol\":404:416  return c + d */\n      swap1\n      pop\n        /* \"TUTORIAL/Functions2.sol\":338:424  function add2(uint c, uint d) public pure returns(uint){\r... */\n      swap3\n      swap2\n      pop\n      pop\n      jump\t// out\n        /* \"TUTORIAL/Functions2.sol\":1125:1232  function callprivateKeyWord() public pure returns(string memory) {\r... */\n    tag_22:\n        /* \"TUTORIAL/Functions2.sol\":1175:1188  string memory */\n      0x60\n        /* \"TUTORIAL/Functions2.sol\":1208:1224  privateKeyWord() */\n      tag_44\n        /* \"TUTORIAL/Functions2.sol\":1208:1222  privateKeyWord */\n      tag_45\n        /* \"TUTORIAL/Functions2.sol\":1208:1224  privateKeyWord() */\n      jump\t// in\n    tag_44:\n        /* \"TUTORIAL/Functions2.sol\":1201:1224  return privateKeyWord() */\n      swap1\n      pop\n        /* \"TUTORIAL/Functions2.sol\":1125:1232  function callprivateKeyWord() public pure returns(string memory) {\r... */\n      swap1\n      jump\t// out\n        /* \"TUTORIAL/Functions2.sol\":244:330  function add(uint a, uint b) public pure returns(uint) {\r... */\n    tag_26:\n        /* \"TUTORIAL/Functions2.sol\":293:297  uint */\n      0x00\n        /* \"TUTORIAL/Functions2.sol\":321:322  b */\n      dup2\n        /* \"TUTORIAL/Functions2.sol\":317:318  a */\n      dup4\n        /* \"TUTORIAL/Functions2.sol\":317:322  a + b */\n      tag_47\n      swap2\n      swap1\n      tag_42\n      jump\t// in\n    tag_47:\n        /* \"TUTORIAL/Functions2.sol\":310:322  return a + b */\n      swap1\n      pop\n        /* \"TUTORIAL/Functions2.sol\":244:330  function add(uint a, uint b) public pure returns(uint) {\r... */\n      swap3\n      swap2\n      pop\n      pop\n      jump\t// out\n        /* \"TUTORIAL/Functions2.sol\":1887:2008  function externalKeyWord() external pure returns(string memory) {\r... */\n    tag_29:\n        /* \"TUTORIAL/Functions2.sol\":1936:1949  string memory */\n      0x60\n        /* \"TUTORIAL/Functions2.sol\":1962:2000  return \"Bu bir external fonksiyondur.\" */\n      mload(0x40)\n      dup1\n      0x40\n      add\n      0x40\n      mstore\n      dup1\n      0x1d\n      dup2\n      mstore\n      0x20\n      add\n      0x4275206269722065787465726e616c20666f6e6b7369796f6e6475722e000000\n      dup2\n      mstore\n      pop\n      swap1\n      pop\n        /* \"TUTORIAL/Functions2.sol\":1887:2008  function externalKeyWord() external pure returns(string memory) {\r... */\n      swap1\n      jump\t// out\n        /* \"TUTORIAL/Functions2.sol\":498:612  function publicKeyWord() public pure returns(string memory) {\r... */\n    tag_32:\n        /* \"TUTORIAL/Functions2.sol\":543:556  string memory */\n      0x60\n        /* \"TUTORIAL/Functions2.sol\":569:604  return \"Bu bir Public fonksiyondur\" */\n      mload(0x40)\n      dup1\n      0x40\n      add\n      0x40\n      mstore\n      dup1\n      0x1a\n      dup2\n      mstore\n      0x20\n      add\n      0x427520626972205075626c696320666f6e6b7369796f6e647572000000000000\n      dup2\n      mstore\n      pop\n      swap1\n      pop\n        /* \"TUTORIAL/Functions2.sol\":498:612  function publicKeyWord() public pure returns(string memory) {\r... */\n      swap1\n      jump\t// out\n        /* \"TUTORIAL/Functions2.sol\":620:725  function callpublicKeyWord() public pure returns(string memory) {\r... */\n    tag_35:\n        /* \"TUTORIAL/Functions2.sol\":669:682  string memory */\n      0x60\n        /* \"TUTORIAL/Functions2.sol\":702:717  publicKeyWord() */\n      tag_51\n        /* \"TUTORIAL/Functions2.sol\":702:715  publicKeyWord */\n      tag_32\n        /* \"TUTORIAL/Functions2.sol\":702:717  publicKeyWord() */\n      jump\t// in\n    tag_51:\n        /* \"TUTORIAL/Functions2.sol\":695:717  return publicKeyWord() */\n      swap1\n      pop\n        /* \"TUTORIAL/Functions2.sol\":620:725  function callpublicKeyWord() public pure returns(string memory) {\r... */\n      swap1\n      jump\t// out\n        /* \"TUTORIAL/Functions2.sol\":1459:1580  function InternalKeyword() internal pure returns(string memory) {\r... */\n    tag_39:\n        /* \"TUTORIAL/Functions2.sol\":1508:1521  string memory */\n      0x60\n        /* \"TUTORIAL/Functions2.sol\":1534:1572  return \"Bu bir internal fonksiyondur.\" */\n      mload(0x40)\n      dup1\n      0x40\n      add\n      0x40\n      mstore\n      dup1\n      0x1d\n      dup2\n      mstore\n      0x20\n      add\n      0x42752062697220696e7465726e616c20666f6e6b7369796f6e6475722e000000\n      dup2\n      mstore\n      pop\n      swap1\n      pop\n        /* \"TUTORIAL/Functions2.sol\":1459:1580  function InternalKeyword() internal pure returns(string memory) {\r... */\n      swap1\n      jump\t// out\n        /* \"TUTORIAL/Functions2.sol\":826:944  function privateKeyWord() private pure returns(string memory) {\r... */\n    tag_45:\n        /* \"TUTORIAL/Functions2.sol\":873:886  string memory */\n      0x60\n        /* \"TUTORIAL/Functions2.sol\":899:936  return \"Bu bir Private fonksiyondur.\" */\n      mload(0x40)\n      dup1\n      0x40\n      add\n      0x40\n      mstore\n      dup1\n      0x1c\n      dup2\n      mstore\n      0x20\n      add\n      0x427520626972205072697661746520666f6e6b7369796f6e6475722e00000000\n      dup2\n      mstore\n      pop\n      swap1\n      pop\n        /* \"TUTORIAL/Functions2.sol\":826:944  function privateKeyWord() private pure returns(string memory) {\r... */\n      swap1\n      jump\t// out\n        /* \"#utility.yul\":7:146   */\n    tag_55:\n        /* \"#utility.yul\":53:58   */\n      0x00\n        /* \"#utility.yul\":91:97   */\n      dup2\n        /* \"#utility.yul\":78:98   */\n      calldataload\n        /* \"#utility.yul\":69:98   */\n      swap1\n      pop\n        /* \"#utility.yul\":107:140   */\n      tag_57\n        /* \"#utility.yul\":134:139   */\n      dup2\n        /* \"#utility.yul\":107:140   */\n      tag_58\n      jump\t// in\n    tag_57:\n        /* \"#utility.yul\":7:146   */\n      swap3\n      swap2\n      pop\n      pop\n      jump\t// out\n        /* \"#utility.yul\":152:626   */\n    tag_17:\n        /* \"#utility.yul\":220:226   */\n      0x00\n        /* \"#utility.yul\":228:234   */\n      dup1\n        /* \"#utility.yul\":277:279   */\n      0x40\n        /* \"#utility.yul\":265:274   */\n      dup4\n        /* \"#utility.yul\":256:263   */\n      dup6\n        /* \"#utility.yul\":252:275   */\n      sub\n        /* \"#utility.yul\":248:280   */\n      slt\n        /* \"#utility.yul\":245:364   */\n      iszero\n      tag_60\n      jumpi\n        /* \"#utility.yul\":283:362   */\n      tag_61\n      tag_62\n      jump\t// in\n    tag_61:\n        /* \"#utility.yul\":245:364   */\n    tag_60:\n        /* \"#utility.yul\":403:404   */\n      0x00\n        /* \"#utility.yul\":428:481   */\n      tag_63\n        /* \"#utility.yul\":473:480   */\n      dup6\n        /* \"#utility.yul\":464:470   */\n      dup3\n        /* \"#utility.yul\":453:462   */\n      dup7\n        /* \"#utility.yul\":449:471   */\n      add\n        /* \"#utility.yul\":428:481   */\n      tag_55\n      jump\t// in\n    tag_63:\n        /* \"#utility.yul\":418:481   */\n      swap3\n      pop\n        /* \"#utility.yul\":374:491   */\n      pop\n        /* \"#utility.yul\":530:532   */\n      0x20\n        /* \"#utility.yul\":556:609   */\n      tag_64\n        /* \"#utility.yul\":601:608   */\n      dup6\n        /* \"#utility.yul\":592:598   */\n      dup3\n        /* \"#utility.yul\":581:590   */\n      dup7\n        /* \"#utility.yul\":577:599   */\n      add\n        /* \"#utility.yul\":556:609   */\n      tag_55\n      jump\t// in\n    tag_64:\n        /* \"#utility.yul\":546:609   */\n      swap2\n      pop\n        /* \"#utility.yul\":501:619   */\n      pop\n        /* \"#utility.yul\":152:626   */\n      swap3\n      pop\n      swap3\n      swap1\n      pop\n      jump\t// out\n        /* \"#utility.yul\":632:996   */\n    tag_65:\n        /* \"#utility.yul\":720:723   */\n      0x00\n        /* \"#utility.yul\":748:787   */\n      tag_67\n        /* \"#utility.yul\":781:786   */\n      dup3\n        /* \"#utility.yul\":748:787   */\n      tag_68\n      jump\t// in\n    tag_67:\n        /* \"#utility.yul\":803:874   */\n      tag_69\n        /* \"#utility.yul\":867:873   */\n      dup2\n        /* \"#utility.yul\":862:865   */\n      dup6\n        /* \"#utility.yul\":803:874   */\n      tag_70\n      jump\t// in\n    tag_69:\n        /* \"#utility.yul\":796:874   */\n      swap4\n      pop\n        /* \"#utility.yul\":883:935   */\n      tag_71\n        /* \"#utility.yul\":928:934   */\n      dup2\n        /* \"#utility.yul\":923:926   */\n      dup6\n        /* \"#utility.yul\":916:920   */\n      0x20\n        /* \"#utility.yul\":909:914   */\n      dup7\n        /* \"#utility.yul\":905:921   */\n      add\n        /* \"#utility.yul\":883:935   */\n      tag_72\n      jump\t// in\n    tag_71:\n        /* \"#utility.yul\":960:989   */\n      tag_73\n        /* \"#utility.yul\":982:988   */\n      dup2\n        /* \"#utility.yul\":960:989   */\n      tag_74\n      jump\t// in\n    tag_73:\n        /* \"#utility.yul\":955:958   */\n      dup5\n        /* \"#utility.yul\":951:990   */\n      add\n        /* \"#utility.yul\":944:990   */\n      swap2\n      pop\n        /* \"#utility.yul\":724:996   */\n      pop\n        /* \"#utility.yul\":632:996   */\n      swap3\n      swap2\n      pop\n      pop\n      jump\t// out\n        /* \"#utility.yul\":1002:1120   */\n    tag_75:\n        /* \"#utility.yul\":1089:1113   */\n      tag_77\n        /* \"#utility.yul\":1107:1112   */\n      dup2\n        /* \"#utility.yul\":1089:1113   */\n      tag_78\n      jump\t// in\n    tag_77:\n        /* \"#utility.yul\":1084:1087   */\n      dup3\n        /* \"#utility.yul\":1077:1114   */\n      mstore\n        /* \"#utility.yul\":1002:1120   */\n      pop\n      pop\n      jump\t// out\n        /* \"#utility.yul\":1126:1439   */\n    tag_14:\n        /* \"#utility.yul\":1239:1243   */\n      0x00\n        /* \"#utility.yul\":1277:1279   */\n      0x20\n        /* \"#utility.yul\":1266:1275   */\n      dup3\n        /* \"#utility.yul\":1262:1280   */\n      add\n        /* \"#utility.yul\":1254:1280   */\n      swap1\n      pop\n        /* \"#utility.yul\":1326:1335   */\n      dup2\n        /* \"#utility.yul\":1320:1324   */\n      dup2\n        /* \"#utility.yul\":1316:1336   */\n      sub\n        /* \"#utility.yul\":1312:1313   */\n      0x00\n        /* \"#utility.yul\":1301:1310   */\n      dup4\n        /* \"#utility.yul\":1297:1314   */\n      add\n        /* \"#utility.yul\":1290:1337   */\n      mstore\n        /* \"#utility.yul\":1354:1432   */\n      tag_80\n        /* \"#utility.yul\":1427:1431   */\n      dup2\n        /* \"#utility.yul\":1418:1424   */\n      dup5\n        /* \"#utility.yul\":1354:1432   */\n      tag_65\n      jump\t// in\n    tag_80:\n        /* \"#utility.yul\":1346:1432   */\n      swap1\n      pop\n        /* \"#utility.yul\":1126:1439   */\n      swap3\n      swap2\n      pop\n      pop\n      jump\t// out\n        /* \"#utility.yul\":1445:1667   */\n    tag_20:\n        /* \"#utility.yul\":1538:1542   */\n      0x00\n        /* \"#utility.yul\":1576:1578   */\n      0x20\n        /* \"#utility.yul\":1565:1574   */\n      dup3\n        /* \"#utility.yul\":1561:1579   */\n      add\n        /* \"#utility.yul\":1553:1579   */\n      swap1\n      pop\n        /* \"#utility.yul\":1589:1660   */\n      tag_82\n        /* \"#utility.yul\":1657:1658   */\n      0x00\n        /* \"#utility.yul\":1646:1655   */\n      dup4\n        /* \"#utility.yul\":1642:1659   */\n      add\n        /* \"#utility.yul\":1633:1639   */\n      dup5\n        /* \"#utility.yul\":1589:1660   */\n      tag_75\n      jump\t// in\n    tag_82:\n        /* \"#utility.yul\":1445:1667   */\n      swap3\n      swap2\n      pop\n      pop\n      jump\t// out\n        /* \"#utility.yul\":1754:1853   */\n    tag_68:\n        /* \"#utility.yul\":1806:1812   */\n      0x00\n        /* \"#utility.yul\":1840:1845   */\n      dup2\n        /* \"#utility.yul\":1834:1846   */\n      mload\n        /* \"#utility.yul\":1824:1846   */\n      swap1\n      pop\n        /* \"#utility.yul\":1754:1853   */\n      swap2\n      swap1\n      pop\n      jump\t// out\n        /* \"#utility.yul\":1859:2028   */\n    tag_70:\n        /* \"#utility.yul\":1943:1954   */\n      0x00\n        /* \"#utility.yul\":1977:1983   */\n      dup3\n        /* \"#utility.yul\":1972:1975   */\n      dup3\n        /* \"#utility.yul\":1965:1984   */\n      mstore\n        /* \"#utility.yul\":2017:2021   */\n      0x20\n        /* \"#utility.yul\":2012:2015   */\n      dup3\n        /* \"#utility.yul\":2008:2022   */\n      add\n        /* \"#utility.yul\":1993:2022   */\n      swap1\n      pop\n        /* \"#utility.yul\":1859:2028   */\n      swap3\n      swap2\n      pop\n      pop\n      jump\t// out\n        /* \"#utility.yul\":2034:2339   */\n    tag_42:\n        /* \"#utility.yul\":2074:2077   */\n      0x00\n        /* \"#utility.yul\":2093:2113   */\n      tag_88\n        /* \"#utility.yul\":2111:2112   */\n      dup3\n        /* \"#utility.yul\":2093:2113   */\n      tag_78\n      jump\t// in\n    tag_88:\n        /* \"#utility.yul\":2088:2113   */\n      swap2\n      pop\n        /* \"#utility.yul\":2127:2147   */\n      tag_89\n        /* \"#utility.yul\":2145:2146   */\n      dup4\n        /* \"#utility.yul\":2127:2147   */\n      tag_78\n      jump\t// in\n    tag_89:\n        /* \"#utility.yul\":2122:2147   */\n      swap3\n      pop\n        /* \"#utility.yul\":2281:2282   */\n      dup3\n        /* \"#utility.yul\":2213:2279   */\n      0xffffffffffffffffffffffffffffffffffffffffffffffffffffffffffffffff\n        /* \"#utility.yul\":2209:2283   */\n      sub\n        /* \"#utility.yul\":2206:2207   */\n      dup3\n        /* \"#utility.yul\":2203:2284   */\n      gt\n        /* \"#utility.yul\":2200:2307   */\n      iszero\n      tag_90\n      jumpi\n        /* \"#utility.yul\":2287:2305   */\n      tag_91\n      tag_92\n      jump\t// in\n    tag_91:\n        /* \"#utility.yul\":2200:2307   */\n    tag_90:\n        /* \"#utility.yul\":2331:2332   */\n      dup3\n        /* \"#utility.yul\":2328:2329   */\n      dup3\n        /* \"#utility.yul\":2324:2333   */\n      add\n        /* \"#utility.yul\":2317:2333   */\n      swap1\n      pop\n        /* \"#utility.yul\":2034:2339   */\n      swap3\n      swap2\n      pop\n      pop\n      jump\t// out\n        /* \"#utility.yul\":2345:2422   */\n    tag_78:\n        /* \"#utility.yul\":2382:2389   */\n      0x00\n        /* \"#utility.yul\":2411:2416   */\n      dup2\n        /* \"#utility.yul\":2400:2416   */\n      swap1\n      pop\n        /* \"#utility.yul\":2345:2422   */\n      swap2\n      swap1\n      pop\n      jump\t// out\n        /* \"#utility.yul\":2428:2735   */\n    tag_72:\n        /* \"#utility.yul\":2496:2497   */\n      0x00\n        /* \"#utility.yul\":2506:2619   */\n    tag_95:\n        /* \"#utility.yul\":2520:2526   */\n      dup4\n        /* \"#utility.yul\":2517:2518   */\n      dup2\n        /* \"#utility.yul\":2514:2527   */\n      lt\n        /* \"#utility.yul\":2506:2619   */\n      iszero\n      tag_97\n      jumpi\n        /* \"#utility.yul\":2605:2606   */\n      dup1\n        /* \"#utility.yul\":2600:2603   */\n      dup3\n        /* \"#utility.yul\":2596:2607   */\n      add\n        /* \"#utility.yul\":2590:2608   */\n      mload\n        /* \"#utility.yul\":2586:2587   */\n      dup2\n        /* \"#utility.yul\":2581:2584   */\n      dup5\n        /* \"#utility.yul\":2577:2588   */\n      add\n        /* \"#utility.yul\":2570:2609   */\n      mstore\n        /* \"#utility.yul\":2542:2544   */\n      0x20\n        /* \"#utility.yul\":2539:2540   */\n      dup2\n        /* \"#utility.yul\":2535:2545   */\n      add\n        /* \"#utility.yul\":2530:2545   */\n      swap1\n      pop\n        /* \"#utility.yul\":2506:2619   */\n      jump(tag_95)\n    tag_97:\n        /* \"#utility.yul\":2637:2643   */\n      dup4\n        /* \"#utility.yul\":2634:2635   */\n      dup2\n        /* \"#utility.yul\":2631:2644   */\n      gt\n        /* \"#utility.yul\":2628:2729   */\n      iszero\n      tag_98\n      jumpi\n        /* \"#utility.yul\":2717:2718   */\n      0x00\n        /* \"#utility.yul\":2708:2714   */\n      dup5\n        /* \"#utility.yul\":2703:2706   */\n      dup5\n        /* \"#utility.yul\":2699:2715   */\n      add\n        /* \"#utility.yul\":2692:2719   */\n      mstore\n        /* \"#utility.yul\":2628:2729   */\n    tag_98:\n        /* \"#utility.yul\":2477:2735   */\n      pop\n        /* \"#utility.yul\":2428:2735   */\n      pop\n      pop\n      pop\n      jump\t// out\n        /* \"#utility.yul\":2741:2921   */\n    tag_92:\n        /* \"#utility.yul\":2789:2866   */\n      0x4e487b7100000000000000000000000000000000000000000000000000000000\n        /* \"#utility.yul\":2786:2787   */\n      0x00\n        /* \"#utility.yul\":2779:2867   */\n      mstore\n        /* \"#utility.yul\":2886:2890   */\n      0x11\n        /* \"#utility.yul\":2883:2884   */\n      0x04\n        /* \"#utility.yul\":2876:2891   */\n      mstore\n        /* \"#utility.yul\":2910:2914   */\n      0x24\n        /* \"#utility.yul\":2907:2908   */\n      0x00\n        /* \"#utility.yul\":2900:2915   */\n      revert\n        /* \"#utility.yul\":3050:3167   */\n    tag_62:\n        /* \"#utility.yul\":3159:3160   */\n      0x00\n        /* \"#utility.yul\":3156:3157   */\n      dup1\n        /* \"#utility.yul\":3149:3161   */\n      revert\n        /* \"#utility.yul\":3173:3275   */\n    tag_74:\n        /* \"#utility.yul\":3214:3220   */\n      0x00\n        /* \"#utility.yul\":3265:3267   */\n      0x1f\n        /* \"#utility.yul\":3261:3268   */\n      not\n        /* \"#utility.yul\":3256:3258   */\n      0x1f\n        /* \"#utility.yul\":3249:3254   */\n      dup4\n        /* \"#utility.yul\":3245:3259   */\n      add\n        /* \"#utility.yul\":3241:3269   */\n      and\n        /* \"#utility.yul\":3231:3269   */\n      swap1\n      pop\n        /* \"#utility.yul\":3173:3275   */\n      swap2\n      swap1\n      pop\n      jump\t// out\n        /* \"#utility.yul\":3281:3403   */\n    tag_58:\n        /* \"#utility.yul\":3354:3378   */\n      tag_105\n        /* \"#utility.yul\":3372:3377   */\n      dup2\n        /* \"#utility.yul\":3354:3378   */\n      tag_78\n      jump\t// in\n    tag_105:\n        /* \"#utility.yul\":3347:3352   */\n      dup2\n        /* \"#utility.yul\":3344:3379   */\n      eq\n        /* \"#utility.yul\":3334:3397   */\n      tag_106\n      jumpi\n        /* \"#utility.yul\":3393:3394   */\n      0x00\n        /* \"#utility.yul\":3390:3391   */\n      dup1\n        /* \"#utility.yul\":3383:3395   */\n      revert\n        /* \"#utility.yul\":3334:3397   */\n    tag_106:\n        /* \"#utility.yul\":3281:3403   */\n      pop\n      jump\t// out\n\n    auxdata: 0xa26469706673582212205afc550db5697a80657154d6c550118f205e8ad7016331d2510e1ec2c0b0140764736f6c63430008070033\n}\n",
				"bytecode": {
					"linkReferences": {},
					"object": "608060405234801561001057600080fd5b506104e0806100206000396000f3fe608060405234801561001057600080fd5b506004361061007d5760003560e01c8063771602f71161005b578063771602f7146100ee5780638a65dbce1461011e578063e523a7091461013c578063f4bb82951461015a5761007d565b806320d6e7031461008257806329fcda33146100a057806358743325146100d0575b600080fd5b61008a610178565b6040516100979190610362565b60405180910390f35b6100ba60048036038101906100b591906102da565b610187565b6040516100c79190610384565b60405180910390f35b6100d861019d565b6040516100e59190610362565b60405180910390f35b610108600480360381019061010391906102da565b6101ac565b6040516101159190610384565b60405180910390f35b6101266101c2565b6040516101339190610362565b60405180910390f35b6101446101ff565b6040516101519190610362565b60405180910390f35b61016261023c565b60405161016f9190610362565b60405180910390f35b606061018261024b565b905090565b6000818361019591906103bb565b905092915050565b60606101a7610288565b905090565b600081836101ba91906103bb565b905092915050565b60606040518060400160405280601d81526020017f4275206269722065787465726e616c20666f6e6b7369796f6e6475722e000000815250905090565b60606040518060400160405280601a81526020017f427520626972205075626c696320666f6e6b7369796f6e647572000000000000815250905090565b60606102466101ff565b905090565b60606040518060400160405280601d81526020017f42752062697220696e7465726e616c20666f6e6b7369796f6e6475722e000000815250905090565b60606040518060400160405280601c81526020017f427520626972205072697661746520666f6e6b7369796f6e6475722e00000000815250905090565b6000813590506102d481610493565b92915050565b600080604083850312156102f1576102f061047d565b5b60006102ff858286016102c5565b9250506020610310858286016102c5565b9150509250929050565b60006103258261039f565b61032f81856103aa565b935061033f81856020860161041b565b61034881610482565b840191505092915050565b61035c81610411565b82525050565b6000602082019050818103600083015261037c818461031a565b905092915050565b60006020820190506103996000830184610353565b92915050565b600081519050919050565b600082825260208201905092915050565b60006103c682610411565b91506103d183610411565b9250827fffffffffffffffffffffffffffffffffffffffffffffffffffffffffffffffff038211156104065761040561044e565b5b828201905092915050565b6000819050919050565b60005b8381101561043957808201518184015260208101905061041e565b83811115610448576000848401525b50505050565b7f4e487b7100000000000000000000000000000000000000000000000000000000600052601160045260246000fd5b600080fd5b6000601f19601f8301169050919050565b61049c81610411565b81146104a757600080fd5b5056fea26469706673582212205afc550db5697a80657154d6c550118f205e8ad7016331d2510e1ec2c0b0140764736f6c63430008070033",
					"opcodes": "PUSH1 0x80 PUSH1 0x40 MSTORE CALLVALUE DUP1 ISZERO PUSH2 0x10 JUMPI PUSH1 0x0 DUP1 REVERT JUMPDEST POP PUSH2 0x4E0 DUP1 PUSH2 0x20 PUSH1 0x0 CODECOPY PUSH1 0x0 RETURN INVALID PUSH1 0x80 PUSH1 0x40 MSTORE CALLVALUE DUP1 ISZERO PUSH2 0x10 JUMPI PUSH1 0x0 DUP1 REVERT JUMPDEST POP PUSH1 0x4 CALLDATASIZE LT PUSH2 0x7D JUMPI PUSH1 0x0 CALLDATALOAD PUSH1 0xE0 SHR DUP1 PUSH4 0x771602F7 GT PUSH2 0x5B JUMPI DUP1 PUSH4 0x771602F7 EQ PUSH2 0xEE JUMPI DUP1 PUSH4 0x8A65DBCE EQ PUSH2 0x11E JUMPI DUP1 PUSH4 0xE523A709 EQ PUSH2 0x13C JUMPI DUP1 PUSH4 0xF4BB8295 EQ PUSH2 0x15A JUMPI PUSH2 0x7D JUMP JUMPDEST DUP1 PUSH4 0x20D6E703 EQ PUSH2 0x82 JUMPI DUP1 PUSH4 0x29FCDA33 EQ PUSH2 0xA0 JUMPI DUP1 PUSH4 0x58743325 EQ PUSH2 0xD0 JUMPI JUMPDEST PUSH1 0x0 DUP1 REVERT JUMPDEST PUSH2 0x8A PUSH2 0x178 JUMP JUMPDEST PUSH1 0x40 MLOAD PUSH2 0x97 SWAP2 SWAP1 PUSH2 0x362 JUMP JUMPDEST PUSH1 0x40 MLOAD DUP1 SWAP2 SUB SWAP1 RETURN JUMPDEST PUSH2 0xBA PUSH1 0x4 DUP1 CALLDATASIZE SUB DUP2 ADD SWAP1 PUSH2 0xB5 SWAP2 SWAP1 PUSH2 0x2DA JUMP JUMPDEST PUSH2 0x187 JUMP JUMPDEST PUSH1 0x40 MLOAD PUSH2 0xC7 SWAP2 SWAP1 PUSH2 0x384 JUMP JUMPDEST PUSH1 0x40 MLOAD DUP1 SWAP2 SUB SWAP1 RETURN JUMPDEST PUSH2 0xD8 PUSH2 0x19D JUMP JUMPDEST PUSH1 0x40 MLOAD PUSH2 0xE5 SWAP2 SWAP1 PUSH2 0x362 JUMP JUMPDEST PUSH1 0x40 MLOAD DUP1 SWAP2 SUB SWAP1 RETURN JUMPDEST PUSH2 0x108 PUSH1 0x4 DUP1 CALLDATASIZE SUB DUP2 ADD SWAP1 PUSH2 0x103 SWAP2 SWAP1 PUSH2 0x2DA JUMP JUMPDEST PUSH2 0x1AC JUMP JUMPDEST PUSH1 0x40 MLOAD PUSH2 0x115 SWAP2 SWAP1 PUSH2 0x384 JUMP JUMPDEST PUSH1 0x40 MLOAD DUP1 SWAP2 SUB SWAP1 RETURN JUMPDEST PUSH2 0x126 PUSH2 0x1C2 JUMP JUMPDEST PUSH1 0x40 MLOAD PUSH2 0x133 SWAP2 SWAP1 PUSH2 0x362 JUMP JUMPDEST PUSH1 0x40 MLOAD DUP1 SWAP2 SUB SWAP1 RETURN JUMPDEST PUSH2 0x144 PUSH2 0x1FF JUMP JUMPDEST PUSH1 0x40 MLOAD PUSH2 0x151 SWAP2 SWAP1 PUSH2 0x362 JUMP JUMPDEST PUSH1 0x40 MLOAD DUP1 SWAP2 SUB SWAP1 RETURN JUMPDEST PUSH2 0x162 PUSH2 0x23C JUMP JUMPDEST PUSH1 0x40 MLOAD PUSH2 0x16F SWAP2 SWAP1 PUSH2 0x362 JUMP JUMPDEST PUSH1 0x40 MLOAD DUP1 SWAP2 SUB SWAP1 RETURN JUMPDEST PUSH1 0x60 PUSH2 0x182 PUSH2 0x24B JUMP JUMPDEST SWAP1 POP SWAP1 JUMP JUMPDEST PUSH1 0x0 DUP2 DUP4 PUSH2 0x195 SWAP2 SWAP1 PUSH2 0x3BB JUMP JUMPDEST SWAP1 POP SWAP3 SWAP2 POP POP JUMP JUMPDEST PUSH1 0x60 PUSH2 0x1A7 PUSH2 0x288 JUMP JUMPDEST SWAP1 POP SWAP1 JUMP JUMPDEST PUSH1 0x0 DUP2 DUP4 PUSH2 0x1BA SWAP2 SWAP1 PUSH2 0x3BB JUMP JUMPDEST SWAP1 POP SWAP3 SWAP2 POP POP JUMP JUMPDEST PUSH1 0x60 PUSH1 0x40 MLOAD DUP1 PUSH1 0x40 ADD PUSH1 0x40 MSTORE DUP1 PUSH1 0x1D DUP2 MSTORE PUSH1 0x20 ADD PUSH32 0x4275206269722065787465726E616C20666F6E6B7369796F6E6475722E000000 DUP2 MSTORE POP SWAP1 POP SWAP1 JUMP JUMPDEST PUSH1 0x60 PUSH1 0x40 MLOAD DUP1 PUSH1 0x40 ADD PUSH1 0x40 MSTORE DUP1 PUSH1 0x1A DUP2 MSTORE PUSH1 0x20 ADD PUSH32 0x427520626972205075626C696320666F6E6B7369796F6E647572000000000000 DUP2 MSTORE POP SWAP1 POP SWAP1 JUMP JUMPDEST PUSH1 0x60 PUSH2 0x246 PUSH2 0x1FF JUMP JUMPDEST SWAP1 POP SWAP1 JUMP JUMPDEST PUSH1 0x60 PUSH1 0x40 MLOAD DUP1 PUSH1 0x40 ADD PUSH1 0x40 MSTORE DUP1 PUSH1 0x1D DUP2 MSTORE PUSH1 0x20 ADD PUSH32 0x42752062697220696E7465726E616C20666F6E6B7369796F6E6475722E000000 DUP2 MSTORE POP SWAP1 POP SWAP1 JUMP JUMPDEST PUSH1 0x60 PUSH1 0x40 MLOAD DUP1 PUSH1 0x40 ADD PUSH1 0x40 MSTORE DUP1 PUSH1 0x1C DUP2 MSTORE PUSH1 0x20 ADD PUSH32 0x427520626972205072697661746520666F6E6B7369796F6E6475722E00000000 DUP2 MSTORE POP SWAP1 POP SWAP1 JUMP JUMPDEST PUSH1 0x0 DUP2 CALLDATALOAD SWAP1 POP PUSH2 0x2D4 DUP2 PUSH2 0x493 JUMP JUMPDEST SWAP3 SWAP2 POP POP JUMP JUMPDEST PUSH1 0x0 DUP1 PUSH1 0x40 DUP4 DUP6 SUB SLT ISZERO PUSH2 0x2F1 JUMPI PUSH2 0x2F0 PUSH2 0x47D JUMP JUMPDEST JUMPDEST PUSH1 0x0 PUSH2 0x2FF DUP6 DUP3 DUP7 ADD PUSH2 0x2C5 JUMP JUMPDEST SWAP3 POP POP PUSH1 0x20 PUSH2 0x310 DUP6 DUP3 DUP7 ADD PUSH2 0x2C5 JUMP JUMPDEST SWAP2 POP POP SWAP3 POP SWAP3 SWAP1 POP JUMP JUMPDEST PUSH1 0x0 PUSH2 0x325 DUP3 PUSH2 0x39F JUMP JUMPDEST PUSH2 0x32F DUP2 DUP6 PUSH2 0x3AA JUMP JUMPDEST SWAP4 POP PUSH2 0x33F DUP2 DUP6 PUSH1 0x20 DUP7 ADD PUSH2 0x41B JUMP JUMPDEST PUSH2 0x348 DUP2 PUSH2 0x482 JUMP JUMPDEST DUP5 ADD SWAP2 POP POP SWAP3 SWAP2 POP POP JUMP JUMPDEST PUSH2 0x35C DUP2 PUSH2 0x411 JUMP JUMPDEST DUP3 MSTORE POP POP JUMP JUMPDEST PUSH1 0x0 PUSH1 0x20 DUP3 ADD SWAP1 POP DUP2 DUP2 SUB PUSH1 0x0 DUP4 ADD MSTORE PUSH2 0x37C DUP2 DUP5 PUSH2 0x31A JUMP JUMPDEST SWAP1 POP SWAP3 SWAP2 POP POP JUMP JUMPDEST PUSH1 0x0 PUSH1 0x20 DUP3 ADD SWAP1 POP PUSH2 0x399 PUSH1 0x0 DUP4 ADD DUP5 PUSH2 0x353 JUMP JUMPDEST SWAP3 SWAP2 POP POP JUMP JUMPDEST PUSH1 0x0 DUP2 MLOAD SWAP1 POP SWAP2 SWAP1 POP JUMP JUMPDEST PUSH1 0x0 DUP3 DUP3 MSTORE PUSH1 0x20 DUP3 ADD SWAP1 POP SWAP3 SWAP2 POP POP JUMP JUMPDEST PUSH1 0x0 PUSH2 0x3C6 DUP3 PUSH2 0x411 JUMP JUMPDEST SWAP2 POP PUSH2 0x3D1 DUP4 PUSH2 0x411 JUMP JUMPDEST SWAP3 POP DUP3 PUSH32 0xFFFFFFFFFFFFFFFFFFFFFFFFFFFFFFFFFFFFFFFFFFFFFFFFFFFFFFFFFFFFFFFF SUB DUP3 GT ISZERO PUSH2 0x406 JUMPI PUSH2 0x405 PUSH2 0x44E JUMP JUMPDEST JUMPDEST DUP3 DUP3 ADD SWAP1 POP SWAP3 SWAP2 POP POP JUMP JUMPDEST PUSH1 0x0 DUP2 SWAP1 POP SWAP2 SWAP1 POP JUMP JUMPDEST PUSH1 0x0 JUMPDEST DUP4 DUP2 LT ISZERO PUSH2 0x439 JUMPI DUP1 DUP3 ADD MLOAD DUP2 DUP5 ADD MSTORE PUSH1 0x20 DUP2 ADD SWAP1 POP PUSH2 0x41E JUMP JUMPDEST DUP4 DUP2 GT ISZERO PUSH2 0x448 JUMPI PUSH1 0x0 DUP5 DUP5 ADD MSTORE JUMPDEST POP POP POP POP JUMP JUMPDEST PUSH32 0x4E487B7100000000000000000000000000000000000000000000000000000000 PUSH1 0x0 MSTORE PUSH1 0x11 PUSH1 0x4 MSTORE PUSH1 0x24 PUSH1 0x0 REVERT JUMPDEST PUSH1 0x0 DUP1 REVERT JUMPDEST PUSH1 0x0 PUSH1 0x1F NOT PUSH1 0x1F DUP4 ADD AND SWAP1 POP SWAP2 SWAP1 POP JUMP JUMPDEST PUSH2 0x49C DUP2 PUSH2 0x411 JUMP JUMPDEST DUP2 EQ PUSH2 0x4A7 JUMPI PUSH1 0x0 DUP1 REVERT JUMPDEST POP JUMP INVALID LOG2 PUSH5 0x6970667358 0x22 SLT KECCAK256 GAS 0xFC SSTORE 0xD 0xB5 PUSH10 0x7A80657154D6C550118F KECCAK256 0x5E DUP11 0xD7 ADD PUSH4 0x31D2510E 0x1E 0xC2 0xC0 0xB0 EQ SMOD PUSH5 0x736F6C6343 STOP ADDMOD SMOD STOP CALLER "
				},
				"gasEstimates": {
					"creation": {
						"codeDepositCost": "249600",
						"executionCost": "287",
						"totalCost": "249887"
					},
					"external": {
						"add(uint256,uint256)": "infinite",
						"add2(uint256,uint256)": "infinite",
						"callInternalKeyword()": "infinite",
						"callprivateKeyWord()": "infinite",
						"callpublicKeyWord()": "infinite",
						"externalKeyWord()": "infinite",
						"publicKeyWord()": "infinite"
					},
					"internal": {
						"InternalKeyword()": "infinite",
						"privateKeyWord()": "infinite"
					}
				},
				"methodIdentifiers": {
					"add(uint256,uint256)": "771602f7",
					"add2(uint256,uint256)": "29fcda33",
					"callInternalKeyword()": "20d6e703",
					"callprivateKeyWord()": "58743325",
					"callpublicKeyWord()": "f4bb8295",
					"externalKeyWord()": "8a65dbce",
					"publicKeyWord()": "e523a709"
				}
			},
			"storageLayout": {
				"storage": [],
				"types": null
			},
			"userdoc": {
				"kind": "user",
				"methods": {},
				"version": 1
			}
		}
	}
}