{
	"TUTORIAL/Functions.sol": {
		"Functions": {
			"abi": [
				{
					"inputs": [],
					"name": "Q",
					"outputs": [
						{
							"internalType": "uint256",
							"name": "",
							"type": "uint256"
						}
					],
					"stateMutability": "view",
					"type": "function"
				},
				{
					"inputs": [],
					"name": "Y",
					"outputs": [
						{
							"internalType": "uint256",
							"name": "",
							"type": "uint256"
						}
					],
					"stateMutability": "view",
					"type": "function"
				},
				{
					"inputs": [
						{
							"internalType": "uint256",
							"name": "t",
							"type": "uint256"
						},
						{
							"internalType": "uint256",
							"name": "y",
							"type": "uint256"
						}
					],
					"name": "add",
					"outputs": [
						{
							"internalType": "uint256",
							"name": "",
							"type": "uint256"
						}
					],
					"stateMutability": "pure",
					"type": "function"
				},
				{
					"inputs": [
						{
							"internalType": "uint256",
							"name": "a",
							"type": "uint256"
						},
						{
							"internalType": "uint256",
							"name": "b",
							"type": "uint256"
						}
					],
					"name": "add2",
					"outputs": [
						{
							"internalType": "uint256",
							"name": "",
							"type": "uint256"
						}
					],
					"stateMutability": "view",
					"type": "function"
				},
				{
					"inputs": [],
					"name": "afewVariables",
					"outputs": [
						{
							"internalType": "uint256",
							"name": "",
							"type": "uint256"
						},
						{
							"internalType": "bool",
							"name": "",
							"type": "bool"
						},
						{
							"internalType": "bool",
							"name": "",
							"type": "bool"
						}
					],
					"stateMutability": "pure",
					"type": "function"
				},
				{
					"inputs": [],
					"name": "anotherVariables",
					"outputs": [
						{
							"internalType": "uint256",
							"name": "x",
							"type": "uint256"
						},
						{
							"internalType": "bool",
							"name": "y",
							"type": "bool"
						},
						{
							"internalType": "bool",
							"name": "z",
							"type": "bool"
						}
					],
					"stateMutability": "pure",
					"type": "function"
				},
				{
					"inputs": [
						{
							"internalType": "uint256",
							"name": "m",
							"type": "uint256"
						}
					],
					"name": "setK",
					"outputs": [
						{
							"internalType": "uint256",
							"name": "",
							"type": "uint256"
						}
					],
					"stateMutability": "view",
					"type": "function"
				},
				{
					"inputs": [
						{
							"internalType": "uint256",
							"name": "newNumber",
							"type": "uint256"
						}
					],
					"name": "setNumber",
					"outputs": [],
					"stateMutability": "nonpayable",
					"type": "function"
				},
				{
					"inputs": [
						{
							"internalType": "uint256",
							"name": "newQ",
							"type": "uint256"
						}
					],
					"name": "setQ",
					"outputs": [],
					"stateMutability": "nonpayable",
					"type": "function"
				},
				{
					"inputs": [
						{
							"internalType": "uint256",
							"name": "newY",
							"type": "uint256"
						}
					],
					"name": "setY",
					"outputs": [],
					"stateMutability": "view",
					"type": "function"
				},
				{
					"inputs": [],
					"name": "showNumber",
					"outputs": [
						{
							"internalType": "uint256",
							"name": "",
							"type": "uint256"
						}
					],
					"stateMutability": "view",
					"type": "function"
				}
			],
			"devdoc": {
				"kind": "dev",
				"methods": {},
				"version": 1
			},
			"evm": {
				"assembly": "    /* \"TUTORIAL/Functions.sol\":66:2160  contract Functions {\r... */\n  mstore(0x40, 0x80)\n    /* \"TUTORIAL/Functions.sol\":117:118  7 */\n  0x07\n    /* \"TUTORIAL/Functions.sol\":98:118  uint luckyNumber = 7 */\n  0x00\n  sstore\n    /* \"TUTORIAL/Functions.sol\":1506:1508  72 */\n  0x48\n    /* \"TUTORIAL/Functions.sol\":1490:1508  uint public Q = 72 */\n  0x01\n  sstore\n    /* \"TUTORIAL/Functions.sol\":1693:1695  17 */\n  0x11\n    /* \"TUTORIAL/Functions.sol\":1677:1695  uint public Y = 17 */\n  0x02\n  sstore\n    /* \"TUTORIAL/Functions.sol\":1766:1767  9 */\n  0x09\n    /* \"TUTORIAL/Functions.sol\":1757:1767  uint k = 9 */\n  0x03\n  sstore\n    /* \"TUTORIAL/Functions.sol\":66:2160  contract Functions {\r... */\n  callvalue\n  dup1\n  iszero\n  tag_1\n  jumpi\n  0x00\n  dup1\n  revert\ntag_1:\n  pop\n  dataSize(sub_0)\n  dup1\n  dataOffset(sub_0)\n  0x00\n  codecopy\n  0x00\n  return\nstop\n\nsub_0: assembly {\n        /* \"TUTORIAL/Functions.sol\":66:2160  contract Functions {\r... */\n      mstore(0x40, 0x80)\n      callvalue\n      dup1\n      iszero\n      tag_1\n      jumpi\n      0x00\n      dup1\n      revert\n    tag_1:\n      pop\n      jumpi(tag_2, lt(calldatasize, 0x04))\n      shr(0xe0, calldataload(0x00))\n      dup1\n      0x6b6b67ed\n      gt\n      tag_14\n      jumpi\n      dup1\n      0x6b6b67ed\n      eq\n      tag_8\n      jumpi\n      dup1\n      0x76dad223\n      eq\n      tag_9\n      jumpi\n      dup1\n      0x771602f7\n      eq\n      tag_10\n      jumpi\n      dup1\n      0x8e403b52\n      eq\n      tag_11\n      jumpi\n      dup1\n      0x8f2d8128\n      eq\n      tag_12\n      jumpi\n      dup1\n      0xe493ef8c\n      eq\n      tag_13\n      jumpi\n      jump(tag_2)\n    tag_14:\n      dup1\n      0x29fcda33\n      eq\n      tag_3\n      jumpi\n      dup1\n      0x3fb5c1cb\n      eq\n      tag_4\n      jumpi\n      dup1\n      0x45b3fe42\n      eq\n      tag_5\n      jumpi\n      dup1\n      0x67de8be9\n      eq\n      tag_6\n      jumpi\n      dup1\n      0x68d466b8\n      eq\n      tag_7\n      jumpi\n    tag_2:\n      0x00\n      dup1\n      revert\n        /* \"TUTORIAL/Functions.sol\":1862:1966  function add2(uint a, uint b) public view returns(uint){\r... */\n    tag_3:\n      tag_15\n      0x04\n      dup1\n      calldatasize\n      sub\n      dup2\n      add\n      swap1\n      tag_16\n      swap2\n      swap1\n      tag_17\n      jump\t// in\n    tag_16:\n      tag_18\n      jump\t// in\n    tag_15:\n      mload(0x40)\n      tag_19\n      swap2\n      swap1\n      tag_20\n      jump\t// in\n    tag_19:\n      mload(0x40)\n      dup1\n      swap2\n      sub\n      swap1\n      return\n        /* \"TUTORIAL/Functions.sol\":646:730  function setNumber(uint newNumber) public {\r... */\n    tag_4:\n      tag_21\n      0x04\n      dup1\n      calldatasize\n      sub\n      dup2\n      add\n      swap1\n      tag_22\n      swap2\n      swap1\n      tag_23\n      jump\t// in\n    tag_22:\n      tag_24\n      jump\t// in\n    tag_21:\n      stop\n        /* \"TUTORIAL/Functions.sol\":1677:1695  uint public Y = 17 */\n    tag_5:\n      tag_25\n      tag_26\n      jump\t// in\n    tag_25:\n      mload(0x40)\n      tag_27\n      swap2\n      swap1\n      tag_20\n      jump\t// in\n    tag_27:\n      mload(0x40)\n      dup1\n      swap2\n      sub\n      swap1\n      return\n        /* \"TUTORIAL/Functions.sol\":1774:1854  function setK(uint m) public view returns (uint) {\r... */\n    tag_6:\n      tag_28\n      0x04\n      dup1\n      calldatasize\n      sub\n      dup2\n      add\n      swap1\n      tag_29\n      swap2\n      swap1\n      tag_23\n      jump\t// in\n    tag_29:\n      tag_30\n      jump\t// in\n    tag_28:\n      mload(0x40)\n      tag_31\n      swap2\n      swap1\n      tag_20\n      jump\t// in\n    tag_31:\n      mload(0x40)\n      dup1\n      swap2\n      sub\n      swap1\n      return\n        /* \"TUTORIAL/Functions.sol\":1704:1749  function setY(uint newY) view public {\r... */\n    tag_7:\n      tag_32\n      0x04\n      dup1\n      calldatasize\n      sub\n      dup2\n      add\n      swap1\n      tag_33\n      swap2\n      swap1\n      tag_23\n      jump\t// in\n    tag_33:\n      tag_34\n      jump\t// in\n    tag_32:\n      stop\n        /* \"TUTORIAL/Functions.sol\":998:1102  function afewVariables() public pure returns(uint, bool, bool) {\r... */\n    tag_8:\n      tag_35\n      tag_36\n      jump\t// in\n    tag_35:\n      mload(0x40)\n      tag_37\n      swap4\n      swap3\n      swap2\n      swap1\n      tag_38\n      jump\t// in\n    tag_37:\n      mload(0x40)\n      dup1\n      swap2\n      sub\n      swap1\n      return\n        /* \"TUTORIAL/Functions.sol\":127:212  function showNumber() public view returns(uint) {\r... */\n    tag_9:\n      tag_39\n      tag_40\n      jump\t// in\n    tag_39:\n      mload(0x40)\n      tag_41\n      swap2\n      swap1\n      tag_20\n      jump\t// in\n    tag_41:\n      mload(0x40)\n      dup1\n      swap2\n      sub\n      swap1\n      return\n        /* \"TUTORIAL/Functions.sol\":2067:2153  function add(uint t, uint y) public pure returns(uint) {\r... */\n    tag_10:\n      tag_42\n      0x04\n      dup1\n      calldatasize\n      sub\n      dup2\n      add\n      swap1\n      tag_43\n      swap2\n      swap1\n      tag_17\n      jump\t// in\n    tag_43:\n      tag_44\n      jump\t// in\n    tag_42:\n      mload(0x40)\n      tag_45\n      swap2\n      swap1\n      tag_20\n      jump\t// in\n    tag_45:\n      mload(0x40)\n      dup1\n      swap2\n      sub\n      swap1\n      return\n        /* \"TUTORIAL/Functions.sol\":1243:1379  function anotherVariables() public pure returns( uint x, bool y, bool z) {\r... */\n    tag_11:\n      tag_46\n      tag_47\n      jump\t// in\n    tag_46:\n      mload(0x40)\n      tag_48\n      swap4\n      swap3\n      swap2\n      swap1\n      tag_38\n      jump\t// in\n    tag_48:\n      mload(0x40)\n      dup1\n      swap2\n      sub\n      swap1\n      return\n        /* \"TUTORIAL/Functions.sol\":1521:1580  function setQ(uint newQ) public {\r... */\n    tag_12:\n      tag_49\n      0x04\n      dup1\n      calldatasize\n      sub\n      dup2\n      add\n      swap1\n      tag_50\n      swap2\n      swap1\n      tag_23\n      jump\t// in\n    tag_50:\n      tag_51\n      jump\t// in\n    tag_49:\n      stop\n        /* \"TUTORIAL/Functions.sol\":1490:1508  uint public Q = 72 */\n    tag_13:\n      tag_52\n      tag_53\n      jump\t// in\n    tag_52:\n      mload(0x40)\n      tag_54\n      swap2\n      swap1\n      tag_20\n      jump\t// in\n    tag_54:\n      mload(0x40)\n      dup1\n      swap2\n      sub\n      swap1\n      return\n        /* \"TUTORIAL/Functions.sol\":1862:1966  function add2(uint a, uint b) public view returns(uint){\r... */\n    tag_18:\n        /* \"TUTORIAL/Functions.sol\":1912:1916  uint */\n      0x00\n        /* \"TUTORIAL/Functions.sol\":1943:1958  block.timestamp */\n      timestamp\n        /* \"TUTORIAL/Functions.sol\":1939:1940  b */\n      dup3\n        /* \"TUTORIAL/Functions.sol\":1935:1936  a */\n      dup5\n        /* \"TUTORIAL/Functions.sol\":1935:1940  a + b */\n      tag_56\n      swap2\n      swap1\n      tag_57\n      jump\t// in\n    tag_56:\n        /* \"TUTORIAL/Functions.sol\":1935:1958  a + b + block.timestamp */\n      tag_58\n      swap2\n      swap1\n      tag_57\n      jump\t// in\n    tag_58:\n        /* \"TUTORIAL/Functions.sol\":1928:1958  return a + b + block.timestamp */\n      swap1\n      pop\n        /* \"TUTORIAL/Functions.sol\":1862:1966  function add2(uint a, uint b) public view returns(uint){\r... */\n      swap3\n      swap2\n      pop\n      pop\n      jump\t// out\n        /* \"TUTORIAL/Functions.sol\":646:730  function setNumber(uint newNumber) public {\r... */\n    tag_24:\n        /* \"TUTORIAL/Functions.sol\":713:722  newNumber */\n      dup1\n        /* \"TUTORIAL/Functions.sol\":699:710  luckyNumber */\n      0x00\n        /* \"TUTORIAL/Functions.sol\":699:722  luckyNumber = newNumber */\n      dup2\n      swap1\n      sstore\n      pop\n        /* \"TUTORIAL/Functions.sol\":646:730  function setNumber(uint newNumber) public {\r... */\n      pop\n      jump\t// out\n        /* \"TUTORIAL/Functions.sol\":1677:1695  uint public Y = 17 */\n    tag_26:\n      sload(0x02)\n      dup2\n      jump\t// out\n        /* \"TUTORIAL/Functions.sol\":1774:1854  function setK(uint m) public view returns (uint) {\r... */\n    tag_30:\n        /* \"TUTORIAL/Functions.sol\":1817:1821  uint */\n      0x00\n        /* \"TUTORIAL/Functions.sol\":1845:1846  m */\n      dup2\n        /* \"TUTORIAL/Functions.sol\":1841:1842  k */\n      sload(0x03)\n        /* \"TUTORIAL/Functions.sol\":1841:1846  k + m */\n      tag_61\n      swap2\n      swap1\n      tag_57\n      jump\t// in\n    tag_61:\n        /* \"TUTORIAL/Functions.sol\":1834:1846  return k + m */\n      swap1\n      pop\n        /* \"TUTORIAL/Functions.sol\":1774:1854  function setK(uint m) public view returns (uint) {\r... */\n      swap2\n      swap1\n      pop\n      jump\t// out\n        /* \"TUTORIAL/Functions.sol\":1704:1749  function setY(uint newY) view public {\r... */\n    tag_34:\n      pop\n      jump\t// out\n        /* \"TUTORIAL/Functions.sol\":998:1102  function afewVariables() public pure returns(uint, bool, bool) {\r... */\n    tag_36:\n        /* \"TUTORIAL/Functions.sol\":1043:1047  uint */\n      0x00\n        /* \"TUTORIAL/Functions.sol\":1049:1053  bool */\n      dup1\n        /* \"TUTORIAL/Functions.sol\":1055:1059  bool */\n      0x00\n        /* \"TUTORIAL/Functions.sol\":1079:1080  5 */\n      0x05\n        /* \"TUTORIAL/Functions.sol\":1082:1087  false */\n      0x00\n        /* \"TUTORIAL/Functions.sol\":1089:1093  true */\n      0x01\n        /* \"TUTORIAL/Functions.sol\":1072:1094  return(5, false, true) */\n      swap3\n      pop\n      swap3\n      pop\n      swap3\n      pop\n        /* \"TUTORIAL/Functions.sol\":998:1102  function afewVariables() public pure returns(uint, bool, bool) {\r... */\n      swap1\n      swap2\n      swap3\n      jump\t// out\n        /* \"TUTORIAL/Functions.sol\":127:212  function showNumber() public view returns(uint) {\r... */\n    tag_40:\n        /* \"TUTORIAL/Functions.sol\":169:173  uint */\n      0x00\n        /* \"TUTORIAL/Functions.sol\":193:204  luckyNumber */\n      dup1\n      sload\n        /* \"TUTORIAL/Functions.sol\":186:204  return luckyNumber */\n      swap1\n      pop\n        /* \"TUTORIAL/Functions.sol\":127:212  function showNumber() public view returns(uint) {\r... */\n      swap1\n      jump\t// out\n        /* \"TUTORIAL/Functions.sol\":2067:2153  function add(uint t, uint y) public pure returns(uint) {\r... */\n    tag_44:\n        /* \"TUTORIAL/Functions.sol\":2116:2120  uint */\n      0x00\n        /* \"TUTORIAL/Functions.sol\":2144:2145  y */\n      dup2\n        /* \"TUTORIAL/Functions.sol\":2140:2141  t */\n      dup4\n        /* \"TUTORIAL/Functions.sol\":2140:2145  t + y */\n      tag_66\n      swap2\n      swap1\n      tag_57\n      jump\t// in\n    tag_66:\n        /* \"TUTORIAL/Functions.sol\":2133:2145  return t + y */\n      swap1\n      pop\n        /* \"TUTORIAL/Functions.sol\":2067:2153  function add(uint t, uint y) public pure returns(uint) {\r... */\n      swap3\n      swap2\n      pop\n      pop\n      jump\t// out\n        /* \"TUTORIAL/Functions.sol\":1243:1379  function anotherVariables() public pure returns( uint x, bool y, bool z) {\r... */\n    tag_47:\n        /* \"TUTORIAL/Functions.sol\":1292:1298  uint x */\n      0x00\n        /* \"TUTORIAL/Functions.sol\":1300:1306  bool y */\n      dup1\n        /* \"TUTORIAL/Functions.sol\":1308:1314  bool z */\n      0x00\n        /* \"TUTORIAL/Functions.sol\":1331:1332  6 */\n      0x06\n        /* \"TUTORIAL/Functions.sol\":1327:1332  x = 6 */\n      swap3\n      pop\n        /* \"TUTORIAL/Functions.sol\":1347:1352  false */\n      0x00\n        /* \"TUTORIAL/Functions.sol\":1343:1352  y = false */\n      swap2\n      pop\n        /* \"TUTORIAL/Functions.sol\":1367:1371  true */\n      0x01\n        /* \"TUTORIAL/Functions.sol\":1363:1371  z = true */\n      swap1\n      pop\n        /* \"TUTORIAL/Functions.sol\":1243:1379  function anotherVariables() public pure returns( uint x, bool y, bool z) {\r... */\n      swap1\n      swap2\n      swap3\n      jump\t// out\n        /* \"TUTORIAL/Functions.sol\":1521:1580  function setQ(uint newQ) public {\r... */\n    tag_51:\n        /* \"TUTORIAL/Functions.sol\":1568:1572  newQ */\n      dup1\n        /* \"TUTORIAL/Functions.sol\":1564:1565  Q */\n      0x01\n        /* \"TUTORIAL/Functions.sol\":1564:1572  Q = newQ */\n      dup2\n      swap1\n      sstore\n      pop\n        /* \"TUTORIAL/Functions.sol\":1521:1580  function setQ(uint newQ) public {\r... */\n      pop\n      jump\t// out\n        /* \"TUTORIAL/Functions.sol\":1490:1508  uint public Q = 72 */\n    tag_53:\n      sload(0x01)\n      dup2\n      jump\t// out\n        /* \"#utility.yul\":7:146   */\n    tag_70:\n        /* \"#utility.yul\":53:58   */\n      0x00\n        /* \"#utility.yul\":91:97   */\n      dup2\n        /* \"#utility.yul\":78:98   */\n      calldataload\n        /* \"#utility.yul\":69:98   */\n      swap1\n      pop\n        /* \"#utility.yul\":107:140   */\n      tag_72\n        /* \"#utility.yul\":134:139   */\n      dup2\n        /* \"#utility.yul\":107:140   */\n      tag_73\n      jump\t// in\n    tag_72:\n        /* \"#utility.yul\":7:146   */\n      swap3\n      swap2\n      pop\n      pop\n      jump\t// out\n        /* \"#utility.yul\":152:481   */\n    tag_23:\n        /* \"#utility.yul\":211:217   */\n      0x00\n        /* \"#utility.yul\":260:262   */\n      0x20\n        /* \"#utility.yul\":248:257   */\n      dup3\n        /* \"#utility.yul\":239:246   */\n      dup5\n        /* \"#utility.yul\":235:258   */\n      sub\n        /* \"#utility.yul\":231:263   */\n      slt\n        /* \"#utility.yul\":228:347   */\n      iszero\n      tag_75\n      jumpi\n        /* \"#utility.yul\":266:345   */\n      tag_76\n      tag_77\n      jump\t// in\n    tag_76:\n        /* \"#utility.yul\":228:347   */\n    tag_75:\n        /* \"#utility.yul\":386:387   */\n      0x00\n        /* \"#utility.yul\":411:464   */\n      tag_78\n        /* \"#utility.yul\":456:463   */\n      dup5\n        /* \"#utility.yul\":447:453   */\n      dup3\n        /* \"#utility.yul\":436:445   */\n      dup6\n        /* \"#utility.yul\":432:454   */\n      add\n        /* \"#utility.yul\":411:464   */\n      tag_70\n      jump\t// in\n    tag_78:\n        /* \"#utility.yul\":401:464   */\n      swap2\n      pop\n        /* \"#utility.yul\":357:474   */\n      pop\n        /* \"#utility.yul\":152:481   */\n      swap3\n      swap2\n      pop\n      pop\n      jump\t// out\n        /* \"#utility.yul\":487:961   */\n    tag_17:\n        /* \"#utility.yul\":555:561   */\n      0x00\n        /* \"#utility.yul\":563:569   */\n      dup1\n        /* \"#utility.yul\":612:614   */\n      0x40\n        /* \"#utility.yul\":600:609   */\n      dup4\n        /* \"#utility.yul\":591:598   */\n      dup6\n        /* \"#utility.yul\":587:610   */\n      sub\n        /* \"#utility.yul\":583:615   */\n      slt\n        /* \"#utility.yul\":580:699   */\n      iszero\n      tag_80\n      jumpi\n        /* \"#utility.yul\":618:697   */\n      tag_81\n      tag_77\n      jump\t// in\n    tag_81:\n        /* \"#utility.yul\":580:699   */\n    tag_80:\n        /* \"#utility.yul\":738:739   */\n      0x00\n        /* \"#utility.yul\":763:816   */\n      tag_82\n        /* \"#utility.yul\":808:815   */\n      dup6\n        /* \"#utility.yul\":799:805   */\n      dup3\n        /* \"#utility.yul\":788:797   */\n      dup7\n        /* \"#utility.yul\":784:806   */\n      add\n        /* \"#utility.yul\":763:816   */\n      tag_70\n      jump\t// in\n    tag_82:\n        /* \"#utility.yul\":753:816   */\n      swap3\n      pop\n        /* \"#utility.yul\":709:826   */\n      pop\n        /* \"#utility.yul\":865:867   */\n      0x20\n        /* \"#utility.yul\":891:944   */\n      tag_83\n        /* \"#utility.yul\":936:943   */\n      dup6\n        /* \"#utility.yul\":927:933   */\n      dup3\n        /* \"#utility.yul\":916:925   */\n      dup7\n        /* \"#utility.yul\":912:934   */\n      add\n        /* \"#utility.yul\":891:944   */\n      tag_70\n      jump\t// in\n    tag_83:\n        /* \"#utility.yul\":881:944   */\n      swap2\n      pop\n        /* \"#utility.yul\":836:954   */\n      pop\n        /* \"#utility.yul\":487:961   */\n      swap3\n      pop\n      swap3\n      swap1\n      pop\n      jump\t// out\n        /* \"#utility.yul\":967:1076   */\n    tag_84:\n        /* \"#utility.yul\":1048:1069   */\n      tag_86\n        /* \"#utility.yul\":1063:1068   */\n      dup2\n        /* \"#utility.yul\":1048:1069   */\n      tag_87\n      jump\t// in\n    tag_86:\n        /* \"#utility.yul\":1043:1046   */\n      dup3\n        /* \"#utility.yul\":1036:1070   */\n      mstore\n        /* \"#utility.yul\":967:1076   */\n      pop\n      pop\n      jump\t// out\n        /* \"#utility.yul\":1082:1200   */\n    tag_88:\n        /* \"#utility.yul\":1169:1193   */\n      tag_90\n        /* \"#utility.yul\":1187:1192   */\n      dup2\n        /* \"#utility.yul\":1169:1193   */\n      tag_91\n      jump\t// in\n    tag_90:\n        /* \"#utility.yul\":1164:1167   */\n      dup3\n        /* \"#utility.yul\":1157:1194   */\n      mstore\n        /* \"#utility.yul\":1082:1200   */\n      pop\n      pop\n      jump\t// out\n        /* \"#utility.yul\":1206:1428   */\n    tag_20:\n        /* \"#utility.yul\":1299:1303   */\n      0x00\n        /* \"#utility.yul\":1337:1339   */\n      0x20\n        /* \"#utility.yul\":1326:1335   */\n      dup3\n        /* \"#utility.yul\":1322:1340   */\n      add\n        /* \"#utility.yul\":1314:1340   */\n      swap1\n      pop\n        /* \"#utility.yul\":1350:1421   */\n      tag_93\n        /* \"#utility.yul\":1418:1419   */\n      0x00\n        /* \"#utility.yul\":1407:1416   */\n      dup4\n        /* \"#utility.yul\":1403:1420   */\n      add\n        /* \"#utility.yul\":1394:1400   */\n      dup5\n        /* \"#utility.yul\":1350:1421   */\n      tag_88\n      jump\t// in\n    tag_93:\n        /* \"#utility.yul\":1206:1428   */\n      swap3\n      swap2\n      pop\n      pop\n      jump\t// out\n        /* \"#utility.yul\":1434:1852   */\n    tag_38:\n        /* \"#utility.yul\":1571:1575   */\n      0x00\n        /* \"#utility.yul\":1609:1611   */\n      0x60\n        /* \"#utility.yul\":1598:1607   */\n      dup3\n        /* \"#utility.yul\":1594:1612   */\n      add\n        /* \"#utility.yul\":1586:1612   */\n      swap1\n      pop\n        /* \"#utility.yul\":1622:1693   */\n      tag_95\n        /* \"#utility.yul\":1690:1691   */\n      0x00\n        /* \"#utility.yul\":1679:1688   */\n      dup4\n        /* \"#utility.yul\":1675:1692   */\n      add\n        /* \"#utility.yul\":1666:1672   */\n      dup7\n        /* \"#utility.yul\":1622:1693   */\n      tag_88\n      jump\t// in\n    tag_95:\n        /* \"#utility.yul\":1703:1769   */\n      tag_96\n        /* \"#utility.yul\":1765:1767   */\n      0x20\n        /* \"#utility.yul\":1754:1763   */\n      dup4\n        /* \"#utility.yul\":1750:1768   */\n      add\n        /* \"#utility.yul\":1741:1747   */\n      dup6\n        /* \"#utility.yul\":1703:1769   */\n      tag_84\n      jump\t// in\n    tag_96:\n        /* \"#utility.yul\":1779:1845   */\n      tag_97\n        /* \"#utility.yul\":1841:1843   */\n      0x40\n        /* \"#utility.yul\":1830:1839   */\n      dup4\n        /* \"#utility.yul\":1826:1844   */\n      add\n        /* \"#utility.yul\":1817:1823   */\n      dup5\n        /* \"#utility.yul\":1779:1845   */\n      tag_84\n      jump\t// in\n    tag_97:\n        /* \"#utility.yul\":1434:1852   */\n      swap5\n      swap4\n      pop\n      pop\n      pop\n      pop\n      jump\t// out\n        /* \"#utility.yul\":1939:2244   */\n    tag_57:\n        /* \"#utility.yul\":1979:1982   */\n      0x00\n        /* \"#utility.yul\":1998:2018   */\n      tag_101\n        /* \"#utility.yul\":2016:2017   */\n      dup3\n        /* \"#utility.yul\":1998:2018   */\n      tag_91\n      jump\t// in\n    tag_101:\n        /* \"#utility.yul\":1993:2018   */\n      swap2\n      pop\n        /* \"#utility.yul\":2032:2052   */\n      tag_102\n        /* \"#utility.yul\":2050:2051   */\n      dup4\n        /* \"#utility.yul\":2032:2052   */\n      tag_91\n      jump\t// in\n    tag_102:\n        /* \"#utility.yul\":2027:2052   */\n      swap3\n      pop\n        /* \"#utility.yul\":2186:2187   */\n      dup3\n        /* \"#utility.yul\":2118:2184   */\n      0xffffffffffffffffffffffffffffffffffffffffffffffffffffffffffffffff\n        /* \"#utility.yul\":2114:2188   */\n      sub\n        /* \"#utility.yul\":2111:2112   */\n      dup3\n        /* \"#utility.yul\":2108:2189   */\n      gt\n        /* \"#utility.yul\":2105:2212   */\n      iszero\n      tag_103\n      jumpi\n        /* \"#utility.yul\":2192:2210   */\n      tag_104\n      tag_105\n      jump\t// in\n    tag_104:\n        /* \"#utility.yul\":2105:2212   */\n    tag_103:\n        /* \"#utility.yul\":2236:2237   */\n      dup3\n        /* \"#utility.yul\":2233:2234   */\n      dup3\n        /* \"#utility.yul\":2229:2238   */\n      add\n        /* \"#utility.yul\":2222:2238   */\n      swap1\n      pop\n        /* \"#utility.yul\":1939:2244   */\n      swap3\n      swap2\n      pop\n      pop\n      jump\t// out\n        /* \"#utility.yul\":2250:2340   */\n    tag_87:\n        /* \"#utility.yul\":2284:2291   */\n      0x00\n        /* \"#utility.yul\":2327:2332   */\n      dup2\n        /* \"#utility.yul\":2320:2333   */\n      iszero\n        /* \"#utility.yul\":2313:2334   */\n      iszero\n        /* \"#utility.yul\":2302:2334   */\n      swap1\n      pop\n        /* \"#utility.yul\":2250:2340   */\n      swap2\n      swap1\n      pop\n      jump\t// out\n        /* \"#utility.yul\":2346:2423   */\n    tag_91:\n        /* \"#utility.yul\":2383:2390   */\n      0x00\n        /* \"#utility.yul\":2412:2417   */\n      dup2\n        /* \"#utility.yul\":2401:2417   */\n      swap1\n      pop\n        /* \"#utility.yul\":2346:2423   */\n      swap2\n      swap1\n      pop\n      jump\t// out\n        /* \"#utility.yul\":2429:2609   */\n    tag_105:\n        /* \"#utility.yul\":2477:2554   */\n      0x4e487b7100000000000000000000000000000000000000000000000000000000\n        /* \"#utility.yul\":2474:2475   */\n      0x00\n        /* \"#utility.yul\":2467:2555   */\n      mstore\n        /* \"#utility.yul\":2574:2578   */\n      0x11\n        /* \"#utility.yul\":2571:2572   */\n      0x04\n        /* \"#utility.yul\":2564:2579   */\n      mstore\n        /* \"#utility.yul\":2598:2602   */\n      0x24\n        /* \"#utility.yul\":2595:2596   */\n      0x00\n        /* \"#utility.yul\":2588:2603   */\n      revert\n        /* \"#utility.yul\":2738:2855   */\n    tag_77:\n        /* \"#utility.yul\":2847:2848   */\n      0x00\n        /* \"#utility.yul\":2844:2845   */\n      dup1\n        /* \"#utility.yul\":2837:2849   */\n      revert\n        /* \"#utility.yul\":2861:2983   */\n    tag_73:\n        /* \"#utility.yul\":2934:2958   */\n      tag_113\n        /* \"#utility.yul\":2952:2957   */\n      dup2\n        /* \"#utility.yul\":2934:2958   */\n      tag_91\n      jump\t// in\n    tag_113:\n        /* \"#utility.yul\":2927:2932   */\n      dup2\n        /* \"#utility.yul\":2924:2959   */\n      eq\n        /* \"#utility.yul\":2914:2977   */\n      tag_114\n      jumpi\n        /* \"#utility.yul\":2973:2974   */\n      0x00\n        /* \"#utility.yul\":2970:2971   */\n      dup1\n        /* \"#utility.yul\":2963:2975   */\n      revert\n        /* \"#utility.yul\":2914:2977   */\n    tag_114:\n        /* \"#utility.yul\":2861:2983   */\n      pop\n      jump\t// out\n\n    auxdata: 0xa2646970667358221220b4107c92dd2c06daab6e0684390f5da2af3ee7fa1f6211fd59557d031647dbe064736f6c63430008070033\n}\n",
				"bytecode": {
					"linkReferences": {},
					"object": "6080604052600760005560486001556011600255600960035534801561002457600080fd5b506104b1806100346000396000f3fe608060405234801561001057600080fd5b50600436106100a95760003560e01c80636b6b67ed116100715780636b6b67ed1461016457806376dad22314610184578063771602f7146101a25780638e403b52146101d25780638f2d8128146101f2578063e493ef8c1461020e576100a9565b806329fcda33146100ae5780633fb5c1cb146100de57806345b3fe42146100fa57806367de8be91461011857806368d466b814610148575b600080fd5b6100c860048036038101906100c39190610314565b61022c565b6040516100d59190610372565b60405180910390f35b6100f860048036038101906100f391906102e7565b61024d565b005b610102610257565b60405161010f9190610372565b60405180910390f35b610132600480360381019061012d91906102e7565b61025d565b60405161013f9190610372565b60405180910390f35b610162600480360381019061015d91906102e7565b610274565b005b61016c610277565b60405161017b9392919061038d565b60405180910390f35b61018c61028d565b6040516101999190610372565b60405180910390f35b6101bc60048036038101906101b79190610314565b610296565b6040516101c99190610372565b60405180910390f35b6101da6102ac565b6040516101e99392919061038d565b60405180910390f35b61020c600480360381019061020791906102e7565b6102c2565b005b6102166102cc565b6040516102239190610372565b60405180910390f35b600042828461023b91906103c4565b61024591906103c4565b905092915050565b8060008190555050565b60025481565b60008160035461026d91906103c4565b9050919050565b50565b6000806000600560006001925092509250909192565b60008054905090565b600081836102a491906103c4565b905092915050565b6000806000600692506000915060019050909192565b8060018190555050565b60015481565b6000813590506102e181610464565b92915050565b6000602082840312156102fd576102fc61045f565b5b600061030b848285016102d2565b91505092915050565b6000806040838503121561032b5761032a61045f565b5b6000610339858286016102d2565b925050602061034a858286016102d2565b9150509250929050565b61035d8161041a565b82525050565b61036c81610426565b82525050565b60006020820190506103876000830184610363565b92915050565b60006060820190506103a26000830186610363565b6103af6020830185610354565b6103bc6040830184610354565b949350505050565b60006103cf82610426565b91506103da83610426565b9250827fffffffffffffffffffffffffffffffffffffffffffffffffffffffffffffffff0382111561040f5761040e610430565b5b828201905092915050565b60008115159050919050565b6000819050919050565b7f4e487b7100000000000000000000000000000000000000000000000000000000600052601160045260246000fd5b600080fd5b61046d81610426565b811461047857600080fd5b5056fea2646970667358221220b4107c92dd2c06daab6e0684390f5da2af3ee7fa1f6211fd59557d031647dbe064736f6c63430008070033",
					"opcodes": "PUSH1 0x80 PUSH1 0x40 MSTORE PUSH1 0x7 PUSH1 0x0 SSTORE PUSH1 0x48 PUSH1 0x1 SSTORE PUSH1 0x11 PUSH1 0x2 SSTORE PUSH1 0x9 PUSH1 0x3 SSTORE CALLVALUE DUP1 ISZERO PUSH2 0x24 JUMPI PUSH1 0x0 DUP1 REVERT JUMPDEST POP PUSH2 0x4B1 DUP1 PUSH2 0x34 PUSH1 0x0 CODECOPY PUSH1 0x0 RETURN INVALID PUSH1 0x80 PUSH1 0x40 MSTORE CALLVALUE DUP1 ISZERO PUSH2 0x10 JUMPI PUSH1 0x0 DUP1 REVERT JUMPDEST POP PUSH1 0x4 CALLDATASIZE LT PUSH2 0xA9 JUMPI PUSH1 0x0 CALLDATALOAD PUSH1 0xE0 SHR DUP1 PUSH4 0x6B6B67ED GT PUSH2 0x71 JUMPI DUP1 PUSH4 0x6B6B67ED EQ PUSH2 0x164 JUMPI DUP1 PUSH4 0x76DAD223 EQ PUSH2 0x184 JUMPI DUP1 PUSH4 0x771602F7 EQ PUSH2 0x1A2 JUMPI DUP1 PUSH4 0x8E403B52 EQ PUSH2 0x1D2 JUMPI DUP1 PUSH4 0x8F2D8128 EQ PUSH2 0x1F2 JUMPI DUP1 PUSH4 0xE493EF8C EQ PUSH2 0x20E JUMPI PUSH2 0xA9 JUMP JUMPDEST DUP1 PUSH4 0x29FCDA33 EQ PUSH2 0xAE JUMPI DUP1 PUSH4 0x3FB5C1CB EQ PUSH2 0xDE JUMPI DUP1 PUSH4 0x45B3FE42 EQ PUSH2 0xFA JUMPI DUP1 PUSH4 0x67DE8BE9 EQ PUSH2 0x118 JUMPI DUP1 PUSH4 0x68D466B8 EQ PUSH2 0x148 JUMPI JUMPDEST PUSH1 0x0 DUP1 REVERT JUMPDEST PUSH2 0xC8 PUSH1 0x4 DUP1 CALLDATASIZE SUB DUP2 ADD SWAP1 PUSH2 0xC3 SWAP2 SWAP1 PUSH2 0x314 JUMP JUMPDEST PUSH2 0x22C JUMP JUMPDEST PUSH1 0x40 MLOAD PUSH2 0xD5 SWAP2 SWAP1 PUSH2 0x372 JUMP JUMPDEST PUSH1 0x40 MLOAD DUP1 SWAP2 SUB SWAP1 RETURN JUMPDEST PUSH2 0xF8 PUSH1 0x4 DUP1 CALLDATASIZE SUB DUP2 ADD SWAP1 PUSH2 0xF3 SWAP2 SWAP1 PUSH2 0x2E7 JUMP JUMPDEST PUSH2 0x24D JUMP JUMPDEST STOP JUMPDEST PUSH2 0x102 PUSH2 0x257 JUMP JUMPDEST PUSH1 0x40 MLOAD PUSH2 0x10F SWAP2 SWAP1 PUSH2 0x372 JUMP JUMPDEST PUSH1 0x40 MLOAD DUP1 SWAP2 SUB SWAP1 RETURN JUMPDEST PUSH2 0x132 PUSH1 0x4 DUP1 CALLDATASIZE SUB DUP2 ADD SWAP1 PUSH2 0x12D SWAP2 SWAP1 PUSH2 0x2E7 JUMP JUMPDEST PUSH2 0x25D JUMP JUMPDEST PUSH1 0x40 MLOAD PUSH2 0x13F SWAP2 SWAP1 PUSH2 0x372 JUMP JUMPDEST PUSH1 0x40 MLOAD DUP1 SWAP2 SUB SWAP1 RETURN JUMPDEST PUSH2 0x162 PUSH1 0x4 DUP1 CALLDATASIZE SUB DUP2 ADD SWAP1 PUSH2 0x15D SWAP2 SWAP1 PUSH2 0x2E7 JUMP JUMPDEST PUSH2 0x274 JUMP JUMPDEST STOP JUMPDEST PUSH2 0x16C PUSH2 0x277 JUMP JUMPDEST PUSH1 0x40 MLOAD PUSH2 0x17B SWAP4 SWAP3 SWAP2 SWAP1 PUSH2 0x38D JUMP JUMPDEST PUSH1 0x40 MLOAD DUP1 SWAP2 SUB SWAP1 RETURN JUMPDEST PUSH2 0x18C PUSH2 0x28D JUMP JUMPDEST PUSH1 0x40 MLOAD PUSH2 0x199 SWAP2 SWAP1 PUSH2 0x372 JUMP JUMPDEST PUSH1 0x40 MLOAD DUP1 SWAP2 SUB SWAP1 RETURN JUMPDEST PUSH2 0x1BC PUSH1 0x4 DUP1 CALLDATASIZE SUB DUP2 ADD SWAP1 PUSH2 0x1B7 SWAP2 SWAP1 PUSH2 0x314 JUMP JUMPDEST PUSH2 0x296 JUMP JUMPDEST PUSH1 0x40 MLOAD PUSH2 0x1C9 SWAP2 SWAP1 PUSH2 0x372 JUMP JUMPDEST PUSH1 0x40 MLOAD DUP1 SWAP2 SUB SWAP1 RETURN JUMPDEST PUSH2 0x1DA PUSH2 0x2AC JUMP JUMPDEST PUSH1 0x40 MLOAD PUSH2 0x1E9 SWAP4 SWAP3 SWAP2 SWAP1 PUSH2 0x38D JUMP JUMPDEST PUSH1 0x40 MLOAD DUP1 SWAP2 SUB SWAP1 RETURN JUMPDEST PUSH2 0x20C PUSH1 0x4 DUP1 CALLDATASIZE SUB DUP2 ADD SWAP1 PUSH2 0x207 SWAP2 SWAP1 PUSH2 0x2E7 JUMP JUMPDEST PUSH2 0x2C2 JUMP JUMPDEST STOP JUMPDEST PUSH2 0x216 PUSH2 0x2CC JUMP JUMPDEST PUSH1 0x40 MLOAD PUSH2 0x223 SWAP2 SWAP1 PUSH2 0x372 JUMP JUMPDEST PUSH1 0x40 MLOAD DUP1 SWAP2 SUB SWAP1 RETURN JUMPDEST PUSH1 0x0 TIMESTAMP DUP3 DUP5 PUSH2 0x23B SWAP2 SWAP1 PUSH2 0x3C4 JUMP JUMPDEST PUSH2 0x245 SWAP2 SWAP1 PUSH2 0x3C4 JUMP JUMPDEST SWAP1 POP SWAP3 SWAP2 POP POP JUMP JUMPDEST DUP1 PUSH1 0x0 DUP2 SWAP1 SSTORE POP POP JUMP JUMPDEST PUSH1 0x2 SLOAD DUP2 JUMP JUMPDEST PUSH1 0x0 DUP2 PUSH1 0x3 SLOAD PUSH2 0x26D SWAP2 SWAP1 PUSH2 0x3C4 JUMP JUMPDEST SWAP1 POP SWAP2 SWAP1 POP JUMP JUMPDEST POP JUMP JUMPDEST PUSH1 0x0 DUP1 PUSH1 0x0 PUSH1 0x5 PUSH1 0x0 PUSH1 0x1 SWAP3 POP SWAP3 POP SWAP3 POP SWAP1 SWAP2 SWAP3 JUMP JUMPDEST PUSH1 0x0 DUP1 SLOAD SWAP1 POP SWAP1 JUMP JUMPDEST PUSH1 0x0 DUP2 DUP4 PUSH2 0x2A4 SWAP2 SWAP1 PUSH2 0x3C4 JUMP JUMPDEST SWAP1 POP SWAP3 SWAP2 POP POP JUMP JUMPDEST PUSH1 0x0 DUP1 PUSH1 0x0 PUSH1 0x6 SWAP3 POP PUSH1 0x0 SWAP2 POP PUSH1 0x1 SWAP1 POP SWAP1 SWAP2 SWAP3 JUMP JUMPDEST DUP1 PUSH1 0x1 DUP2 SWAP1 SSTORE POP POP JUMP JUMPDEST PUSH1 0x1 SLOAD DUP2 JUMP JUMPDEST PUSH1 0x0 DUP2 CALLDATALOAD SWAP1 POP PUSH2 0x2E1 DUP2 PUSH2 0x464 JUMP JUMPDEST SWAP3 SWAP2 POP POP JUMP JUMPDEST PUSH1 0x0 PUSH1 0x20 DUP3 DUP5 SUB SLT ISZERO PUSH2 0x2FD JUMPI PUSH2 0x2FC PUSH2 0x45F JUMP JUMPDEST JUMPDEST PUSH1 0x0 PUSH2 0x30B DUP5 DUP3 DUP6 ADD PUSH2 0x2D2 JUMP JUMPDEST SWAP2 POP POP SWAP3 SWAP2 POP POP JUMP JUMPDEST PUSH1 0x0 DUP1 PUSH1 0x40 DUP4 DUP6 SUB SLT ISZERO PUSH2 0x32B JUMPI PUSH2 0x32A PUSH2 0x45F JUMP JUMPDEST JUMPDEST PUSH1 0x0 PUSH2 0x339 DUP6 DUP3 DUP7 ADD PUSH2 0x2D2 JUMP JUMPDEST SWAP3 POP POP PUSH1 0x20 PUSH2 0x34A DUP6 DUP3 DUP7 ADD PUSH2 0x2D2 JUMP JUMPDEST SWAP2 POP POP SWAP3 POP SWAP3 SWAP1 POP JUMP JUMPDEST PUSH2 0x35D DUP2 PUSH2 0x41A JUMP JUMPDEST DUP3 MSTORE POP POP JUMP JUMPDEST PUSH2 0x36C DUP2 PUSH2 0x426 JUMP JUMPDEST DUP3 MSTORE POP POP JUMP JUMPDEST PUSH1 0x0 PUSH1 0x20 DUP3 ADD SWAP1 POP PUSH2 0x387 PUSH1 0x0 DUP4 ADD DUP5 PUSH2 0x363 JUMP JUMPDEST SWAP3 SWAP2 POP POP JUMP JUMPDEST PUSH1 0x0 PUSH1 0x60 DUP3 ADD SWAP1 POP PUSH2 0x3A2 PUSH1 0x0 DUP4 ADD DUP7 PUSH2 0x363 JUMP JUMPDEST PUSH2 0x3AF PUSH1 0x20 DUP4 ADD DUP6 PUSH2 0x354 JUMP JUMPDEST PUSH2 0x3BC PUSH1 0x40 DUP4 ADD DUP5 PUSH2 0x354 JUMP JUMPDEST SWAP5 SWAP4 POP POP POP POP JUMP JUMPDEST PUSH1 0x0 PUSH2 0x3CF DUP3 PUSH2 0x426 JUMP JUMPDEST SWAP2 POP PUSH2 0x3DA DUP4 PUSH2 0x426 JUMP JUMPDEST SWAP3 POP DUP3 PUSH32 0xFFFFFFFFFFFFFFFFFFFFFFFFFFFFFFFFFFFFFFFFFFFFFFFFFFFFFFFFFFFFFFFF SUB DUP3 GT ISZERO PUSH2 0x40F JUMPI PUSH2 0x40E PUSH2 0x430 JUMP JUMPDEST JUMPDEST DUP3 DUP3 ADD SWAP1 POP SWAP3 SWAP2 POP POP JUMP JUMPDEST PUSH1 0x0 DUP2 ISZERO ISZERO SWAP1 POP SWAP2 SWAP1 POP JUMP JUMPDEST PUSH1 0x0 DUP2 SWAP1 POP SWAP2 SWAP1 POP JUMP JUMPDEST PUSH32 0x4E487B7100000000000000000000000000000000000000000000000000000000 PUSH1 0x0 MSTORE PUSH1 0x11 PUSH1 0x4 MSTORE PUSH1 0x24 PUSH1 0x0 REVERT JUMPDEST PUSH1 0x0 DUP1 REVERT JUMPDEST PUSH2 0x46D DUP2 PUSH2 0x426 JUMP JUMPDEST DUP2 EQ PUSH2 0x478 JUMPI PUSH1 0x0 DUP1 REVERT JUMPDEST POP JUMP INVALID LOG2 PUSH5 0x6970667358 0x22 SLT KECCAK256 0xB4 LT PUSH29 0x92DD2C06DAAB6E0684390F5DA2AF3EE7FA1F6211FD59557D031647DBE0 PUSH5 0x736F6C6343 STOP ADDMOD SMOD STOP CALLER "
				},
				"gasEstimates": {
					"creation": {
						"codeDepositCost": "240200",
						"executionCost": "88705",
						"totalCost": "328905"
					},
					"external": {
						"Q()": "2539",
						"Y()": "2474",
						"add(uint256,uint256)": "infinite",
						"add2(uint256,uint256)": "infinite",
						"afewVariables()": "infinite",
						"anotherVariables()": "infinite",
						"setK(uint256)": "infinite",
						"setNumber(uint256)": "22543",
						"setQ(uint256)": "22608",
						"setY(uint256)": "495",
						"showNumber()": "2459"
					}
				},
				"methodIdentifiers": {
					"Q()": "e493ef8c",
					"Y()": "45b3fe42",
					"add(uint256,uint256)": "771602f7",
					"add2(uint256,uint256)": "29fcda33",
					"afewVariables()": "6b6b67ed",
					"anotherVariables()": "8e403b52",
					"setK(uint256)": "67de8be9",
					"setNumber(uint256)": "3fb5c1cb",
					"setQ(uint256)": "8f2d8128",
					"setY(uint256)": "68d466b8",
					"showNumber()": "76dad223"
				}
			},
			"storageLayout": {
				"storage": [
					{
						"astId": 4,
						"contract": "TUTORIAL/Functions.sol:Functions",
						"label": "luckyNumber",
						"offset": 0,
						"slot": "0",
						"type": "t_uint256"
					},
					{
						"astId": 62,
						"contract": "TUTORIAL/Functions.sol:Functions",
						"label": "Q",
						"offset": 0,
						"slot": "1",
						"type": "t_uint256"
					},
					{
						"astId": 75,
						"contract": "TUTORIAL/Functions.sol:Functions",
						"label": "Y",
						"offset": 0,
						"slot": "2",
						"type": "t_uint256"
					},
					{
						"astId": 84,
						"contract": "TUTORIAL/Functions.sol:Functions",
						"label": "k",
						"offset": 0,
						"slot": "3",
						"type": "t_uint256"
					}
				],
				"types": {
					"t_uint256": {
						"encoding": "inplace",
						"label": "uint256",
						"numberOfBytes": "32"
					}
				}
			},
			"userdoc": {
				"kind": "user",
				"methods": {},
				"version": 1
			}
		}
	}
}